:020000040000FA
:100000000C9441050C9469050C9469050C946905E0
:100010000C9469050C9469050C9469050C946905A8
:100020000C9469050C9469050C9469050C94690598
:100030000C9469050C9469050C9469050C94690588
:100040000C9478140C9469050C9446140C942014A8
:100050000C9469050C9469050C9469050C94690568
:100060000C94C2140C946905DB40A4A62EAF2000AA
:10007000A1C8D300408DAED580A80000600000006C
:100080000000000000000000000000E00000000090
:1000900000000000000000000001E000000000007F
:1000A000000000000000000001F00000000000005F
:1000B0000000000000000003F0000000000000004D
:1000C00000000000000007F0000000000000000039
:1000D000000000000007F800000000000000000021
:1000E000000000000FF800000003C0007E000001C7
:1000F000E0007F0FF800000003C000FE000001E0F8
:1001000000FFEFF800000003C000FE000001E00067
:10011000FFFFF800000003C000F00000000F007FA8
:10012000FE7FC0000003C000F00000000F003FFE93
:100130007FF83FF1FBCFFCFEF3BC3DEFE01FFE7FFD
:10014000FF7FFBFFDFFEFEFFBC3DEFE01FC6FFFFB2
:100150007FFBFFDFFEFEFFBC3DEFE00FE3C7FE7855
:100160007BC3DE1EF0FFBC3DEF0007FF87FC787B02
:10017000C3DE1EF0F83C3DEF0001FFFFF0007BC343
:10018000C01EF0F03C3DEF0001F37FE03FFBC3CF2A
:10019000FEF0F03C3DEF0003E33F807FFBC3DFFE5A
:1001A000F0F03C3DEF0007E73C00787BC3DE1EF03B
:1001B000F03C3DEF0007FFBE00787BC3DE1EF0F091
:1001C0003C3DEF0007FFFE00787BC3DE1EF0F03CF5
:1001D0003DEF000FFFFE007FFBFFDFFEF0F03FFD75
:1001E000EFE00FFFFF007FFBFFDFFEF0F03FFDEFD2
:1001F000E00FF9FF003E79F9CF9EF0F01F3DE7E0F8
:100200001FF1FF0000000000000000000000001FC0
:1002100080FF007FFFFFFFFFFFFFFFFFFFE01C00ED
:100220007F007FFFFFFFFEB46D888D18E000001F88
:10023000007FFFFFFFFE95AD7DB577E000000F006A
:100240007FFFFFFFFEA5AD9D8D19E0000006007F3A
:10025000FFFFFFFEB5ADEDB57EE000000000000140
:10026000800000000000000000000380000000008B
:10027000000000000007C0000000000000000000B7
:1002800007C00000000000000000000FC0000000D8
:100290000000000000001FE000000000000000005F
:1002A000001FE00000000000000000003FE0000030
:1002B000000000000000003FF0000000000000000F
:1002C00000007FF0000000000000001FF87FF00039
:1002D0000000000000003FFE7FF000000000000072
:1002E000003FFF7FF0000000000000001FFFFBE068
:1002F000000000000000000FFFF9FFC00000000038
:1003000000000FFFF9FFF800000000000007FFF1F8
:10031000FFFF00000000000003FC73FFFF800000EF
:1003200000000001FE3FFFFF80000000000000FF12
:100330001E0FFF000000000000007FFE1FFC0000F9
:1003400000000000003FFFFFF80000000000000078
:100350000FDFFFE0000000000000001F19FFC000D9
:100360000000000000003F3CFF0000000000000013
:10037000007E7CF800000000000000007FFE7C0092
:1003800000000000000000FFFFFC00000000000073
:100390000000FFFFFE0000000000000000FFFFFE65
:1003A0000000000000000001FFEFFE000000000060
:1003B000000001FFCFFE0000000000000003FF0767
:1003C000FE0000000000000003FC07FE000000002B
:1003D00000000003F003FE000000000000000180A8
:1003E00000FE000000000000000000007E00000091
:1003F000000000000000003E0000000000000000BF
:1004000000000C000000000000078000FC0000035A
:10041000C0000000078001FC000003C000000007CE
:100420008001FC000003C0000000078001E0000024
:10043000001E000000078001E00000001E007FE3B6
:10044000F79FF9FDE7787BDFC0FFF7FFBFFDFDFFFA
:10045000787BDFC0FFF7FFBFFDFDFF787BDFC0F0DB
:10046000F787BC3DE1FF787BDE00F0F787BC3DE11C
:10047000F0787BDE0000F787803DE1E0787BDE00EE
:100480007FF7879FFDE1E0787BDE00FFF787BFFD08
:10049000E1E0787BDE00F0F787BC3DE1E0787BDED1
:1004A00000F0F787BC3DE1E0787BDE00F0F787BC29
:1004B0003DE1E0787BDE00FFF7FFBFFDE1E07FFB81
:1004C000DFC0FFF7FFBFFDE1E07FFBDFC07CF3F3A0
:1004D0009F3DE1E03E7BCFC0000000000000000037
:1004E000000000FFFFFFFFFFFFFFFFFFFFC0FFFF58
:1004F000FFFFFD68DB111A31C0FFFFFFFFFD2B5A24
:10050000FB6AEFC0FFFFFFFFFD4B5B3B1A33C0FFF1
:10051000FFFFFFFD6B5BDB6AFDC000000000003EDB
:100520005B4F5B3E3E6B4F6B3E1C3E7C3E1C183C63
:100530007E3C181C577D571C1C5E7F5E1C00183CBF
:100540001800FFE7C3E7FF0018241800FFE7DBE708
:10055000FF30483A060E2629792926407F050507EF
:10056000407F05253F5A3CE73C5A7F3E1C1C08084B
:100570001C1C3E7F14227F22145F5F005F5F060910
:100580007F017F006689956A606060606094A2FF69
:10059000A29408047E040810207E201008082A1C5B
:1005A00008081C2A08081E101010100C1E0C1E0C27
:1005B00030383E3830060E3E0E06000000000000C7
:1005C000005F00000007000700147F147F14242A36
:1005D0007F2A122313086462364956205000080708
:1005E0000300001C2241000041221C002A1C7F1C29
:1005F0002A08083E0808008070300008080808082B
:10060000000060600020100804023E5149453E0091
:10061000427F400072494949462141494D331814EF
:10062000127F1027454545393C4A4949314121113E
:1006300009073649494936464949291E0000140030
:100640000000403400000008142241141414141453
:10065000004122140802015909063E415D594E7CB1
:100660001211127C7F494949363E414141227F4166
:1006700041413E7F494949417F090909013E4141C4
:1006800051737F0808087F00417F41002040413FAF
:10069000017F081422417F404040407F021C027FBE
:1006A0007F0408107F3E4141413E7F090909063E13
:1006B0004151215E7F0919294626494949320301E2
:1006C0007F01033F4040403F1F2040201F3F4038F4
:1006D000403F631408146303047804036159494DCF
:1006E00043007F4141410204081020004141417F05
:1006F000040201020440404040400003070800207B
:10070000545478407F28444438384444442838447A
:1007100044287F385454541800087E090218A4A4B1
:100720009C787F0804047800447D40002040403DD0
:10073000007F1028440000417F40007C047804784A
:100740007C080404783844444438FC1824241818DD
:10075000242418FC7C080404084854545424040439
:100760003F44243C4040207C1C2040201C3C403026
:10077000403C44281028444C9090907C4464544C55
:1007800044000836410000007700000041360800B0
:1007900002010204023C2623263C1EA1A161123A5A
:1007A0004040207A385454555921555579412254A6
:1007B000547842215554784020545579400C1E52AB
:1007C0007212395555555939545454593955545450
:1007D000580000457C410002457D420001457C40B7
:1007E0007D1211127DF0282528F07C5455450020FB
:1007F00054547C547C0A097F4932494949323A446D
:1008000044443A324A4848303A4141217A3A4240D7
:100810002078009DA0A07D3D4242423D3D404040A9
:100820003D3C24FF2424487E4943662B2FFC2F2B7C
:10083000FF0929F620C0887E09032054547941001D
:1008400000447D413048484A32384040227A007A9C
:100850000A0A727D0D19317D2629292F282629297A
:10086000292630484D40203808080808080808089C
:10087000382F10C8ACBA2F102834FA00007B0000C3
:1008800008142A142222142A14085500550055AAC7
:1008900055AA55AAFF55FF55FF000000FF00101094
:1008A00010FF00141414FF001010FF00FF1010F0D0
:1008B00010F0141414FC001414F700FF0000FF00E3
:1008C000FF1414F404FC141417101F10101F101F31
:1008D0001414141F00101010F0000000001F10105E
:1008E00010101F10101010F010000000FF1010105A
:1008F000101010101010FF10000000FF140000FF77
:1009000000FF00001F10170000FC04F4141417105F
:10091000171414F404F40000FF00F7141414141452
:100920001414F700F7141414171410101F101F14C8
:100930001414F4141010F010F000001F101F000029
:10094000001F14000000FC140000F010F01010FF55
:1009500010FF141414FF141010101F00000000F0FA
:1009600010FFFFFFFFFFF0F0F0F0F0FFFFFF0000CF
:10097000000000FFFF0F0F0F0F0F3844443844FCF6
:100980004A4A4A347E02020606027E027E0263550D
:100990004941633844443C04407E201E2006027EC8
:1009A000020299A5E7A5991C2A492A1C4C720172DA
:1009B0004C304A4D4D303048784830BC625A463D44
:1009C0003E494949007E0101017E2A2A2A2A2A44F9
:1009D000445F444440514A444040444A514000002E
:1009E000FF0103E080FF000008086B6B0836123639
:1009F0002436060F090F060000181800000010101A
:100A0000003040FF0101001F01011E00191D1712D7
:100A1000003C3C3C3C00000000002200FF210000A4
:100A20000103070F1F3F7F0080C0E0F0F8FCFE00CD
:100A3000000008000201000003040700000000009D
:100A400000000000000000250028002B000000002E
:100A500000240027002A00040404040404040402FF
:100A6000020202020203030303030301020408104B
:100A70002040800102040810200102040810200018
:100A8000E11511241FBECFEFD8E0DEBFCDBF11E0CE
:100A9000A0E0B1E0E0E3F4E302C005900D92A635DA
:100AA000B107D9F722E0A6E5B1E001C01D92A73C4D
:100AB000B207E1F715E0C1E4D5E004C02197FE01DB
:100AC0000E94DF18C034D107C9F70E941A160C948F
:100AD000161A0C94000090E0FC01E559F54F2491A2
:100AE000895A954FFC018491882399F090E0880FF2
:100AF000991FFC01E35BF54FA591B491FC01ED5BFF
:100B0000F54F859194918FB7F894EC91E22BEC938B
:100B10008FBF08950895AF92BF92CF92DF92EF9268
:100B2000FF920F931F93CF93DF936C017B018B0197
:100B3000040F151FEB015E01AE18BF08C017D107E7
:100B400059F06991D601ED91FC910190F081E02D71
:100B5000C6010995892B79F7C501DF91CF911F91C6
:100B60000F91FF90EF90DF90CF90BF90AF900895DE
:100B7000FC01538D448D252F30E0842F90E0821BA3
:100B8000930B541710F0CF96089501970895FC0128
:100B9000918D828D981761F0A28DAE0FBF2FB11D80
:100BA0005D968C91928D9F5F9F73928F90E00895D8
:100BB0008FEF9FEF0895FC01918D828D981731F092
:100BC000828DE80FF11D858D90E008958FEF9FEFE6
:100BD0000895FC01918D228D892F90E0805C9F4FBC
:100BE000821B91098F7399270895FC01A48DA80F8A
:100BF000B92FB11DA35ABF4F2C91848D90E001965F
:100C00008F739927848FA689B7892C93A089B1897E
:100C10008C91837080648C93938D848D981306C01F
:100C20000288F389E02D80818F7D80830895EF9283
:100C3000FF920F931F93CF93DF93EC0181E0888F96
:100C40009B8D8C8D98131AC0E889F989808185FF66
:100C500015C09FB7F894EE89FF896083E889F98908
:100C600080818370806480839FBF81E090E0DF910A
:100C7000CF911F910F91FF90EF900895F62E0B8D5D
:100C800010E00F5F1F4F0F731127E02E8C8D8E1118
:100C90000CC00FB607FCFACFE889F989808185FF7F
:100CA000F5CFCE010E94F505F1CFEB8DEC0FFD2FB6
:100CB000F11DE35AFF4FF0829FB7F8940B8FEA893A
:100CC000FB8980818062CFCFCF93DF93EC01888D49
:100CD0008823B9F0AA89BB89E889F9898C9185FDB7
:100CE00003C0808186FD0DC00FB607FCF7CF8C9145
:100CF00085FFF2CF808185FFEDCFCE010E94F50503
:100D0000E9CFDF91CF91089590E0FC01E15DF54FCF
:100D10002491FC01E559F54F3491FC01E95AF54F56
:100D2000E491EE23C9F0222339F0233001F1A8F435
:100D3000213019F1223029F1F0E0EE0FFF1FED5BB9
:100D4000F54FA591B4918FB7F894EC91611126C03D
:100D500030953E233C938FBF08952730A9F028306B
:100D6000C9F0243049F7809180008F7D03C08091C5
:100D700080008F7780938000DFCF84B58F7784BD2C
:100D8000DBCF84B58F7DFBCF8091B0008F778093D0
:100D9000B000D2CF8091B0008F7DF9CF3E2BDACF5B
:100DA0003FB7F8948091160290911702A091180213
:100DB000B091190226B5A89B05C02F3F19F00196E6
:100DC000A11DB11D3FBFBA2FA92F982F8827BC01A5
:100DD000CD01620F711D811D911D42E0660F771FCD
:100DE000881F991F4A95D1F708958F929F92AF92CD
:100DF000BF92CF92DF92EF92FF924B015C010E9473
:100E0000D0066B017C010E94D0066C197D098E0909
:100E10009F09683E734081059105A8F321E0821A7D
:100E20009108A108B10888EEC80E83E0D81EE11C25
:100E3000F11C81149104A104B10429F7FF90EF90F3
:100E4000DF90CF90BF90AF909F908F900895EF92DA
:100E5000FF920F931F93CF93DF93EC01EC80FD8003
:100E60006E157F050CF070C057FF04C0240F351FAE
:100E700050E040E08E819F81FA01E20FF31F8E1750
:100E80009F071CF49C01241B350B121613060CF053
:100E90005BC0922F842F8695869586958E9DD00176
:100EA0008F9DB00D11246A0F7B1FAF8DB8A1A60FC7
:100EB000B71F477049F188E0841B482F682F70E006
:100EC000FB01E95DF54FE491281708F063C0621B50
:100ED00071092FEF30E002C0359527956A95E2F74A
:100EE000E2230130110539F0B0F10230110561F54E
:100EF0008C91E82702C08C91E82BEC93941720F199
:100F00002C813D81A20FB31FE92FE41BE83078F05C
:100F10000230110521F58E2F9C9190959C932C8188
:100F20003D81A20FB31F88508830B0F7E770EE23E1
:100F300059F0F0E0E15EF54FE49101301105F9F070
:100F400010F10230110519F1DF91CF911F910F912E
:100F5000FF90EF900895E0958C91E823CECF81E04B
:100F60000115110509F480E081959E2F8C932C8149
:100F70003D81A20FB31F98509830C0F7D7CF8C9106
:100F8000E82BEC93E1CFE0958C91E823FACF8C919C
:100F9000E827F7CF0130110509F4ADCFE0F20230B8
:100FA000110509F4A5CFAE0DBF1DAECF0F931F9352
:100FB000CF93DF9377FF04C0260F371F70E060E008
:100FC000DC011496CD91DC91FB01E20FF31FCE17EB
:100FD000DF071CF49E01261B370B121613064CF577
:100FE000FA0157FD3796A3E0F595E795AA95E1F745
:100FF000EC9FD001ED9FB00DFC9FB00D11246A0F46
:101000007B1FDC015F96ED91FC91E60FF71F4770A7
:10101000552781E090E001C0880F4A95EAF7482FF4
:101020000130110559F0A8F02E0F3F1F02301105B5
:10103000E1F0DF91CF911F910F9108952E0F3F1F87
:10104000E217F307B1F38191DF011197842B8C93A1
:10105000F7CF80952E0F3F1FE217F30751F39191C1
:10106000DF01119798239C93F7CFE217F30709F359
:101070008191DF01119784278C93F7CF0F931F93F2
:10108000FA01DC0156964C9156974230E9F0433014
:10109000A1F1413061F514964D915C91DA01AE1BDE
:1010A000BF0BFD01E21BF30B77FD0BC0DC011696B5
:1010B0004D915C916417750724F4AB01BF010E9448
:1010C000D6071F910F91089514964D915C91DA0106
:1010D000A61BB70BBD0161507109DC0116964D913D
:1010E0005C91DA01AE1BBF0BFD01E21BF30B77FD38
:1010F000E8CFAF010E942707E4CF16964D915C918F
:10110000DA01A61BB70BBD0161507109CDCF0F935A
:101110001F93FA01DC0156964C9156974230A9F084
:10112000433091F1413019F514964D915C91DA01FB
:10113000AE1BBF0BFD013197F7FD04C0AB01BF0132
:101140000E9427071F910F91089514964D915C916D
:10115000DA01A61BB70BBD01DC0116964D915C911F
:10116000DA01AE1BBF0BFD013197621B730BF7FD5C
:10117000E9CFDC0116964D915C91E417F50714F761
:10118000AF010E94D607DECF16964D915C91DA0131
:10119000A61BB70BBD01621B730BCECFFC0177FD05
:1011A00064C080859185681779070CF05EC057FD93
:1011B0005CC082859385481759070CF056C0868914
:1011C0008230B1F0833029F1813041F484819581FE
:1011D000841B950BAB01BC016150710921303105B5
:1011E00009F108F443C02230310509F463C00895C1
:1011F00084819581DC01A61BB70BBD01615071098B
:1012000086819781DC01A41BB50BAD0141505109CA
:10121000E5CF86819781861B970BBA01AC014150BF
:101220005109DCCFCA0157FD0796A3E09595879534
:10123000AA95E1F7A481B5818A9F90018B9F300D1B
:101240009A9F300D1124620F731F078CF0A1E02DBF
:10125000E60FF71F4770552721E030E001C0220F4D
:101260004A95EAF78081822B80830895CA0157FD51
:10127000079633E0959587953A95E1F7A481B58176
:101280008A9F90018B9F300D9A9F300D1124620F21
:10129000731F078CF0A1E02DE60FF71F477055274D
:1012A00081E090E001C0880F4A95EAF7809590812F
:1012B0008923DACFCA0157FD079623E095958795D4
:1012C0002A95E1F7A481B5818A9F90018B9F300D0B
:1012D0009A9F300D1124620F731F078CF0A1E02D2F
:1012E000E60FF71F4770552721E030E001C0220FBD
:1012F0004A95EAF780818227B7CF08958EBD000016
:101300000DB407FEFDCF8EB508958CBD9DBD08952B
:101310000895FC016370668B8481958126813781F5
:10132000613039F0633029F09187808733872287D5
:101330000895318720879387828708952F923F925F
:101340004F925F926F927F928F929F92AF92BF92D5
:10135000CF92DF92EF92FF920F931F93CF93DF9381
:10136000CDB7DEB76A970FB6F894DEBF0FBECDBF1C
:101370009A8F898F7A8369834A01D22E18870F83C7
:101380003701BC2CDC0159962D913C915A972115BF
:10139000310509F015C118968D919C911997681720
:1013A00079070CF0D7C11A968D919C91481759076F
:1013B0000CF0D0C14C2C512CB6E0CB9E600D711DB1
:1013C00011247C876B87161617060CF0C3C1EA2D13
:1013D000F0E0FA87E98793E0EE0FFF1F9A95E1F7B7
:1013E000F88BEF87CF01840F951F181619060CF0A4
:1013F000B1C1A98DBA8D58968C91811104C0BFEAF4
:10140000BD1508F4D394A98DBA8DED91FC91119777
:101410000284F385E02DCD010995B5E0DB9EC00186
:101420001124E981FA81FC83EB83312C212C9C016E
:10143000265E3A4F388F2F8B4A2D50E05E8B4D8BB6
:10144000EF89F88DE20DF31D44919E828D82D12C9F
:10145000C12C69817A81620D731D7A8B698B842F0F
:1014600090E09C8B8B8BE98DFA8DA081B18140FF40
:1014700082C0F1E0BF126FC0AF126DC01C96ED913B
:10148000FC912F813885A4014C0D5D1D69897A89F5
:10149000898D9A8D0995EB89FC89F595E7954E2FF5
:1014A0005FEFC51AD50A6D817E818D899E89680F8F
:1014B000791F7E836D8398E0C916D10481F6AFEF62
:1014C0002A1A3A0AEB81FC81E40DF51DFC83EB83BB
:1014D000F5E02F16310409F0B3CF2F81388526159A
:1014E0003705B9F0A98DBA8DED91FC91B1E0BB1231
:1014F00057C0AB1255C069817A816B5F7F4F0088FE
:10150000F189E02D830128E030E0A401898D9A8DD6
:101510000995A98DBA8DED91FC9111970688F789EF
:10152000E02DCD016A960FB6F894DEBF0FBECDBF99
:10153000DF91CF911F910F91FF90EF90DF90CF90AF
:10154000BF90AF909F908F907F906F905F904F90E3
:101550003F902F9009941E96ED91FC91EF80F884B6
:1015600009851A8592014D815E816B817C81898D0F
:101570009A8D099590CF2F8138852615370509F466
:101580008ACF31E0B31207C0A31205C01C96ED91BB
:10159000FC91930178CF1E96ED91FC917301E0CF01
:1015A0006B857C85641975090684F785E02D7301C8
:1015B0000F8518899201A401898D9A8D0995A9CF6B
:1015C000F90134969491329745915491D91AB7E024
:1015D000DB9E400D511D1124F901259134913C8B66
:1015E0002B8BFA0125903490FA0132967490319643
:1015F0003491398B329664903196449041E04C1589
:1016000018F04A1508F07FC0662D062C000C770BE9
:101610007C836B83842D042C000C990B9E838D831B
:10162000A98DBA8DED91FC9111970284F385E02D7F
:10163000CD010995512CD12CC12CEA2DF0E0FA876F
:10164000E9872B2D30E03C872B87A401440D511DE9
:1016500047FC5A95588F4F8B69817A81660D711DB1
:1016600067FC7A957E876D877989C71608F051CF18
:101670002C2D30E04D815E81420F531FA985BA8524
:101680004A9FC0014B9F900D5A9F900D1124FC0161
:10169000E80DF91DF88BEF87852D612C4F89588D4A
:1016A000420F531F5E8B4D8B671408F050C04424CB
:1016B0004394480E877041F4C1010196EB89FC897F
:1016C000E20DF31DD4901C01D7FE19C0A98DBA8D6F
:1016D000ED91FC91662D70E0B1E0BB1219C0AB1228
:1016E00017C02D853E85620F731F0484F585E02D9C
:1016F0002F8138854D895E89898D9A8D0995DD0CFC
:101700006394842DD1CF1E821D821C821B8288CFC0
:101710004B815C81640F751FAB85BC856A9FC001DE
:101720006B9F900D7A9F900D112469817A81680FCB
:10173000791F0684F785E02DEF80F88409851A85E6
:101740009D014F855889898D9A8D0995D8CF570C61
:10175000C3948ACF6A960FB6F894DEBF0FBECDBF92
:10176000DF91CF911F910F91FF90EF90DF90CF907D
:10177000BF90AF909F908F907F906F905F904F90B1
:101780003F902F9008958F929F92AF92CF92EF92B9
:10179000FF920F931F93CF93DF93EC01262F898D38
:1017A0009A8D009709F051C06A30D1F41D861C86CD
:1017B0008D8948E0849F900111248E859F85820F3A
:1017C000931F9F878E8781E090E0DF91CF911F91DB
:1017D0000F91FF90EF90CF90AF909F908F900895D2
:1017E0006D3089F3CC88AD888F898823C1F08C85D2
:1017F0009D8536E0C39E800D911D11244885598535
:101800004817590764F44E855F851D861C8638E0AD
:10181000A39EC0011124840F951F9F878E87EA889D
:10182000FB88088919894E855F856C857D85CE0189
:101830000E949E092C898C859D8546E0249F800D01
:10184000911D11249D878C87BECF6A3069F41D8657
:101850001C86FC013896E4912D898E859F85E29F38
:10186000800D911D1124ADCF6D3009F4ACCFFC017A
:1018700034963491631708F4A6CF3296E491E617B4
:1018800008F4A1CFFC01329685909490462F431B1B
:10189000342F47E0349F800C911C1124F4013296C0
:1018A00034913196E4913323A9F1EE2399F1CC8858
:1018B000F4013596E491AD884F89442301F10E2E51
:1018C000000CFF0BE30FF11DCE9EA001CF9E500D2B
:1018D00011246C857D85460F571F688579856417AF
:1018E00075076CF44E855F851D861C86FC01389655
:1018F000E491AE9E400D511D11245F874E87EA880A
:10190000FB88088919894E855F856C857D85CE01A8
:101910000E949E09F4013496E4912C898C859D8562
:10192000E29F800D911D11248DCF6F927F928F9237
:101930009F92AF92BF92CF92DF92EF92FF920F935E
:101940001F93CF93DF93EC016B015A0139014801DA
:10195000E881F9810284F385E02D0995E881F98118
:101960000288F389E02D87019301A501B601CE011C
:101970000995A501480D591D41505109E881F9818A
:101980000288F389E02D9301B601CE010995E88123
:10199000F9810088F189E02D9401A501B601CE01FD
:1019A0000995C60CD71CB60161507109E881F9810F
:1019B0000088F189E02D9401A501CE010995E88107
:1019C000F9810688F789E02DCE01DF91CF911F9133
:1019D0000F91FF90EF90DF90CF90BF90AF909F90CE
:1019E0008F907F906F9009946F927F928F929F92C9
:1019F000AF92BF92CF92DF92EF92FF920F931F931D
:101A0000CF93DF935C01EB016A0149013801870143
:101A1000DC01ED91FC916217730719F564167506E8
:101A20002CF0962D872D3A01C92ED82E9601261915
:101A300037092F5F3F4F048CF58DE02DA301BE01C8
:101A4000C5010995DF91CF911F910F91FF90EF9004
:101A5000DF90CF90BF90AF909F908F907F906F90CE
:101A600008954615570591F42617370724F0892D58
:101A70004B01C22FD82F9E01281939092F5F3F4FE4
:101A8000068CF78DE02DA601B401DACF0284F38530
:101A9000E02D0995D501ED91FC910488F589E02DA3
:101AA00083019401A601BE01C5010995D501ED91FF
:101AB000FC910688F789E02DC501DF91CF911F9138
:101AC0000F91FF90EF90DF90CF90BF90AF909F90DD
:101AD0008F907F906F900994EF92FF920F931F93D6
:101AE000DC011A960D911C911B9718962D913C9133
:101AF0001997ED91FC9100A0F1A1E02D7B0150E040
:101B000040E070E060E009951F910F91FF90EF9029
:101B100008954F925F926F927F928F929F92AF92B1
:101B2000BF92CF92DF92EF92FF920F931F93CF93CA
:101B3000DF936C012B015A0139014801DC01ED9161
:101B4000FC910284F385E02D0995E201640C751C7B
:101B5000D601ED91FC91C615D7055CF40088F1899A
:101B6000E02D87019401A501BE01C60109952196CA
:101B7000EFCF0688F789E02DC601DF91CF911F9145
:101B80000F91FF90EF90DF90CF90BF90AF909F901C
:101B90008F907F906F905F904F9009948F929F925B
:101BA000AF92BF92CF92DF92EF92FF920F931F936B
:101BB000CF93DF93EC015B014A016901E881F98170
:101BC0000284F385E02D099595012C0D3D1D2150D2
:101BD0003109E881F9810488F589E02D78018401D3
:101BE000A401B501CE010995E881F9810688F7893C
:101BF000E02DCE01DF91CF911F910F91FF90EF90DB
:101C0000DF90CF90BF90AF909F908F9009948F926C
:101C10009F92AF92BF92CF92DF92EF92FF920F937B
:101C20001F93CF93DF93EC015B014A0169017801B7
:101C3000E881F9810284F385E02D0995C80CD91C4F
:101C4000860101501109E881F9810488F589E02DA8
:101C50009501A401B501CE010995E881F9810688B5
:101C6000F789E02DCE01DF91CF911F910F91FF9069
:101C7000EF90DF90CF90BF90AF909F908F9009949E
:101C8000EF92FF920F931F93DC01ED91FC9100A066
:101C9000F1A1E02D09951F910F91FF90EF9008950C
:101CA0000F931F93DC01ED91FC91068CF78DE02DD5
:101CB00009951F910F9108950F931F93DC01ED91EA
:101CC000FC91048CF58DE02D09951F910F910895DD
:101CD000DC01ED91FC910084F185E02D09943F92A7
:101CE0004F925F926F927F928F929F92AF92BF922C
:101CF000CF92DF92EF92FF920F931F93CF93DF93D8
:101D000000D000D0CDB7DEB75C013B016A014901CC
:101D1000280187E0480E511C93E0559447949A950A
:101D2000E1F7CA018E0D9F1D9A838983F12CE12C66
:101D3000312C1C821B828B819C8187709927330CEC
:101D4000892B61F4EB81FC8183E0F595E7958A9519
:101D5000E1F7EE0DFF1DE80DF91D349037FE0AC0C6
:101D600021E030E0A6016B817C81660D771DC50105
:101D70000E94680E8B819C8101969C838B8308173F
:101D80001907C9F69FEFC91AD90AE40CF51C898115
:101D90009A81C816D90669F60F900F900F900F9090
:101DA000DF91CF911F910F91FF90EF90DF90CF9037
:101DB000BF90AF909F908F907F906F905F904F906B
:101DC0003F9008952F923F924F925F926F927F9231
:101DD0008F929F92AF92BF92CF92DF92EF92FF923B
:101DE0000F931F93CF93DF9300D000D000D0CDB7D7
:101DF000DEB73C016A013E832D83FC82EB825801F1
:101E0000A41AB50AB7FE03C0B194A194B1088D809D
:101E10009E80861A970A97FE03C091948194910838
:101E20008A149B045CF0902F812F0D811E819D836D
:101E30008E839C2D8D2D6B01692F782F0C151D0520
:101E40005CF09D818E817E836D83692F782F902F2A
:101E5000812F8601C92ED82E1601201A310A2B0196
:101E60002D813E81421A530A57FE03C0519441947A
:101E70005108710137FE03C03FEFE31AF30AF594EE
:101E8000E7948D819E81861797075CF5A1E0B0E00D
:101E9000BA83A983C016D1064CF1D301ED91FC9110
:101EA0000484F585E02D2B813C81A8016D817E8124
:101EB0008A149B041CF04D815E81B801C301099511
:101EC000E418F508F7FE0AC02D813E8189819A81C8
:101ED000280F391F3E832D83E20CF31C0F5F1F4F29
:101EE000D9CF2FEF3FEF3A832983D4CF26960FB671
:101EF000F894DEBF0FBECDBFDF91CF911F910F9140
:101F0000FF90EF90DF90CF90BF90AF909F908F9019
:101F10007F906F905F904F903F902F90089508951D
:101F20002091C101260F3327331F21323105ECF4F4
:101F30002091E701FC0190E080E0243069F082E02C
:101F40000895A091C1012191AC0141565E4FA40FAB
:101F5000B52FB11D2C930196861798F38091C1017E
:101F6000680F6093C10180E0089581E008951092A8
:101F7000E70181E08093E9011092E80161E082E1EC
:101F80000E94840661E083E10E948406E9EBF0E0B0
:101F900080818E7F808380818D7F808388E48093A1
:101FA000B80085E48093BC000895CF93DF9391E05F
:101FB00090939E018823B9F0C091B800D091BA00E7
:101FC0008091BC008A7B8093BC0060E082E10E942B
:101FD000840660E083E10E9484060E94B70FD093DC
:101FE000BA00C093B800DF91CF9108950895089585
:101FF000E091980180919701E81730F4F0E0E958FA
:10200000FE4F808190E008958FEF9FEF08959091AB
:102010009801809197012FEF3FEF981748F4E92F2F
:10202000F0E0E958FE4F208130E09F5F90939801E7
:10203000C90108958091970190919801891B990B8E
:102040000895CF92DF92EF92FF920F931F93CF9359
:10205000DF937C01CB018A0120911002222389F0B9
:10206000EB016B01C40ED51ECC15DD0569F069913D
:10207000D701ED91FC910190F081E02DC701099508
:10208000F3CF642F0E94900FC801DF91CF911F9171
:102090000F91FF90EF90DF90CF900895CF93DF9353
:1020A0001F92CDB7DEB76983209110022223F9F089
:1020B00020910D02203258F021E030E0FC01338302
:1020C000228390E080E00F90DF91CF91089580917E
:1020D0000E02E82FF0E0E95AFE4F998190838F5F5E
:1020E00080930E0280930D0281E090E0ECCF61E0DE
:1020F000CE0101960E94900FF7CFCF92DF92EF9220
:10210000FF920F931F93CF93DF93D0910D0281E045
:10211000D13208F09CC0C0910F020E94D0066B0122
:102120007C018091E70181116CC082E08093E7011E
:1021300081E08093E9018FEF8093E60110920B021A
:10214000D0930A02A7E5B1E0EAEEF1E080E0D8130F
:102150008DC010920C0280910C02CC0FC82BC09342
:102160000C028091E801813009F084C01092E801EE
:102170000E94D0066B017C0180910C028093BB0011
:1021800080919A0190919B01A0919C01B0919D0139
:10219000892B8A2B8B2BA1F00E94D00600919A01EB
:1021A00010919B0120919C0130919D016C197D093A
:1021B0008E099F09061717072807390708F442C038
:1021C0008091BC0083FDD8CF85EC8093BC000E9439
:1021D000D0066B017C018091E701823009F44CC08C
:1021E0008091E6018F3F09F469C08091E601803259
:1021F00009F466C08091E601803309F463C084E08D
:1022000026C080919A0190919B01A0919C01B09170
:102210009D01892B8A2B8B2B09F483CF0E94D0063A
:1022200000919A0110919B0120919C0130919D0198
:102230006C197D098E099F090617170728073907AA
:1022400008F06FCF809199010E94D50F85E0109220
:102250000E0210920D0210921002DF91CF911F9189
:102260000F91FF90EF90DF90CF9008959D91919303
:102270008F5F6DCF85EEA9CF80919A0190919B01E0
:10228000A0919C01B0919D01892B8A2B8B2B09F485
:10229000A2CF0E94D00600919A0110919B0120913B
:1022A0009C0130919D016C197D098E099F090617CB
:1022B00017072807390708F08ECFC4CF80E0C7CFB3
:1022C00082E0C5CF83E0C3CFCF92DF92EF92FF923F
:1022D0000F931F93CF93DF93EC016B01142F8D8D20
:1022E0009E8D009709F454C029A131E0309310026B
:1022F00020930F0210920E0210920D02DC01ED915C
:10230000FC910190F081E02D60E009957601CC24EC
:10231000C394D12C01E011508D8D9E8D1F3F71F122
:10232000B0E2CB16D104C0F00E947D108D8D9E8D41
:1023300029A10093100220930F0210920E02109216
:102340000D02DC01ED91FC910190F081E02D60E047
:102350000995CC24C394D12C8D8D9E8DF701649169
:10236000DC01ED91FC910190F081E02D0995BFEF2A
:10237000CB1ADB0AEFEFEE1AFE0ACDCFDF91CF9139
:102380001F910F91FF90EF90DF90CF900C947D10F4
:10239000EDA5FEA590818BA98095892380837B0183
:1023A000115070F1F70184912B8D3C8D232B31F06E
:1023B0000E947E09FFEFEF1AFF0AF2CF28E030E01B
:1023C00040E8E9A5FAA599A9582F5423A9F050810E
:1023D000952B9083EBA5FCA590815AA9952B908312
:1023E000EBA5FCA550819AA99095952390834695DD
:1023F0002150310931F7DECF508190959523E9CFF7
:10240000DF91CF911F910F91FF90EF90DF90CF90D0
:1024100008951F93CF93DF93EC018D8D9E8D0097D0
:1024200021F1162F29A131E03093100220930F02E1
:1024300010920E0210920D02DC01ED91FC910190C0
:10244000F081E02D60E009958D8D9E8DDC01ED9190
:10245000FC910190F081E02D612F09958D8D9E8D6D
:10246000DF91CF911F910C947D10ADA5BEA59C91DD
:102470008BA9809589238C938B8D9C8D892B31F032
:10248000862FDF91CF911F910C947E0928E030E0D8
:1024900080E8A9A5BAA599A9462F4823C1F04C9177
:1024A000942B9C93ABA5BCA59C914AA9942B9C937F
:1024B000ABA5BCA54C919AA9909594239C93869525
:1024C0002150310931F7DF91CF911F9108954C913F
:1024D00090959423E6CF1F93CF93DF93EC01162FB3
:1024E0008D8D9E8D892BB1F12DA93EA94FA958AD97
:1024F00060E074E284EF90E00E94BD182051310941
:102500004109510956954795379527952093B8006D
:1025100066EA111167EACE010E9409128D8D9E8D27
:10252000892B41F129AD3AAD4BAD5CAD60E074E271
:1025300084EF90E00E94BD182051310941095109F2
:1025400056954795379527952093B800DF91CF9101
:102550001F9108958B8D9C8D892B21F08EAD9FADA1
:102560000E948509EFA5F8A990818CA980958923FF
:102570008083CECFEFA5F8A980819CA9892B808389
:10258000E5CFBF92CF92DF92EF92FF920F931F930E
:10259000CF93DF93EC018D8D9E8D892B09F484C040
:1025A0002DA93EA94FA958AD60E074E284EF90E0F8
:1025B0000E94BD182051310941095109569547958E
:1025C000379527952093B80045E06AE17AE0CE017F
:1025D0000E9464116C816150CE010E9409122E810B
:1025E0003F81C901079697FD079633E0959587953A
:1025F0003A95E1F72C813D81829F7001839FF00C19
:10260000929FF00C11240F8D18A18D8D9E8DE00EE0
:10261000F11E009709F47DC029A131E0309310022A
:1026200020930F0210920E0210920D02DC01ED9128
:10263000FC910190F081E02D60E40995CC24C394D5
:10264000D12CBB24B3948D8D9E8DE016F106E1F163
:10265000B0E2CB16D104C0F00E947D108D8D9E8D0E
:1026600029A1B092100220930F0210920E02109234
:102670000D02DC01ED91FC910190F081E02D60E410
:102680000995CC24C394D12C8D8D9E8DF801619138
:102690008F01DC01ED91FC910190F081E02D099515
:1026A000BFEFCB1ADB0ACFCF8B8D9C8D892B21F00E
:1026B0008EAD9FAD0E948509EFA5F8A990818CA9E8
:1026C00080958923808380CF0E947D108D8D9E8D83
:1026D000892B09F453C029AD3AAD4BAD5CAD60E038
:1026E00074E284EF90E00E94BD1820513109410945
:1026F000510956954795379527952093B800DF9156
:10270000CF911F910F91FF90EF90DF90CF90BF90EE
:102710000895EDA5FEA580819BA9892B8083E016F5
:10272000F106A1F2F80181918F012B8D3C8D232BB5
:1027300019F00E947E09F3CF28E030E040E8E9A5D7
:10274000FAA599A9582F5423A9F05081952B90836D
:10275000EBA5FCA590815AA9952B9083EBA5FCA530
:1027600050819AA9909595239083469521503109DF
:1027700031F7D5CF508190959523E9CFEFA5F8A9F2
:1027800080819CA9892B8083BACF90E080E0089556
:102790000E940A1AFC01868197819C01295F3F4FA4
:1027A00037FF02C0295F3F4F83E0359527958A9513
:1027B000E1F784819581289FA001299F500D389FC2
:1027C000500D112470E060E0878D90A10C940F1AD9
:1027D00085ED8093BC0080919A0190919B01A0911E
:1027E0009C01B0919D010796A11DB11D23E0B695F6
:1027F000A795979587952A95D1F72091BC0024FD40
:1028000003C01092E701089540919A0150919B01F5
:1028100060919C0170919D01452B462B472B69F3DC
:102820000097A105B10541F025E32A95F1F70000D5
:102830000197A109B109E1CF809199010C94D50FBD
:102840001F920F920FB60F9211242F933F934F9325
:102850005F936F937F938F939F93AF93BF93EF9308
:10286000FF938AE192E00E94F505FF91EF91BF91FD
:10287000AF919F918F917F916F915F914F913F9118
:102880002F910F900FBE0F901F9018951F920F92CF
:102890000FB60F9211242F938F939F93EF93FF9373
:1028A000E0912A02F0912B028081E0913002F091B8
:1028B000310282FD1BC09081809133028F5F8F7344
:1028C00020913402821741F0E0913302F0E0E65E9D
:1028D000FD4F958F80933302FF91EF919F918F91E0
:1028E0002F910F900FBE0F901F9018958081F4CFFD
:1028F0001F920F920FB60F9211242F933F938F9335
:102900009F93AF93BF938091120290911302A09175
:102910001402B09115023091110223E0230F2D37DC
:1029200058F50196A11DB11D20931102809312024A
:1029300090931302A0931402B09315028091160293
:1029400090911702A0911802B09119020196A11D51
:10295000B11D8093160290931702A0931802B093B2
:102960001902BF91AF919F918F913F912F910F903D
:102970000FBE0F901F90189526E8230F0296A11DF9
:10298000B11DD2CF1F920F920FB60F9211242F9329
:102990003F934F935F936F937F938F939F93AF93E7
:1029A000BF93EF93FF938091B900887F803609F43D
:1029B0004AC0F0F5883209F4A7C018F5803109F44F
:1029C0009BC0B8F4882309F4F9C0883009F494C096
:1029D000FF91EF91BF91AF919F918F917F916F91F7
:1029E0005F914F913F912F910F900FBE0F901F90CD
:1029F0001895883109F488C0803251F78093E60138
:102A000014C0803409F49DC040F48033B9F3883396
:102A1000F9F68093E60185ECB0C0803509F485C0F5
:102A2000883509F496C0883499F60E94E813D0CF0F
:102A3000883909F48CC038F5883729F050F4883685
:102A400011F0803729F683E08093E7011092E501C9
:102A500057C0883809F47BC0803919F0803809F0F4
:102A6000B7CF8091E501803208F071C0E091E501B7
:102A700081E08E0F8093E5018091BB00F0E0EB5385
:102A8000FE4F80833DC0803B39F0E0F4803A09F48A
:102A900079C0883A09F09CCF84E08093E7011092D6
:102AA000C2011092C101E091BF01F091C0010995EE
:102AB0008091C10181110FC081E08093C10110920A
:102AC0009F0109C0803C09F4A6CF883C09F4A3CF3C
:102AD000883B09F07DCFE091C20181E08E0F8093A9
:102AE000C201F0E0E156FE4F80818093BB009091DF
:102AF000C2018091C10129C080910C028093BB006A
:102B000085EC8093BC0064CF90910B0280910A0207
:102B1000981758F5E0910B0281E08E0F80930B021D
:102B2000F0E0E651FE4F8081E9CFE0910B0281E0B9
:102B30008E0F80930B028091BB00F0E0E651FE4FB8
:102B4000808390910B0280910A029817C8F285E861
:102B5000D8CFE0910B0281E08E0F80930B02809121
:102B6000BB00F0E0E651FE4F80838091E9018111C6
:102B70005CCF81E08093E80184EA8093BC001092EE
:102B8000E70126CF85EC8093BC001092E70180918D
:102B9000E501803230F4E091E501F0E0EB53FE4FC7
:102BA00010826091E50170E0E091C301F091C401F1
:102BB00085EC91E009951092E5010ACF1092E601AB
:102BC00034CFEAE1F2E01382128288EE93E0A0E0D3
:102BD000B0E084839583A683B78326E331E0318315
:102BE000208325EC30E03587248724EC30E03787DC
:102BF000268720EC30E0318B208B21EC30E0338BCA
:102C0000228B22EC30E0358B248B26EC30E0378BA6
:102C1000268B118E128E138E148EE7EBF2E0138248
:102C2000128284839583A683B78388E491E091839D
:102C300080830895CF93DF93CDB7DEB7C054D10919
:102C40000FB6F894DEBF0FBECDBFE0912A02F0911F
:102C50002B0292E09083E0912602F09127021082ED
:102C6000E0912802F09129028FEC808310923202C9
:102C7000E0912E02F0912F0286E08083E0912C02F9
:102C8000F0912D02808180618083E0912C02F0918F
:102C90002D02808188608083E0912C02F0912D02CA
:102CA000808180688083E0912C02F0912D028081E8
:102CB0008F7D808314B895B917B818B880E68AB9A3
:102CC00080E88BB981EA84BD85E085BD20E830E0ED
:102CD00010928000809381001C821B823E832D8392
:102CE00080E490E098878F833A8729879C878B8739
:102CF0001F8A1E861D86188A1F8681E08E8B8D8B0B
:102D00002FEF3FEF3C8B2B8B3A8B298B888F198EC3
:102D10001B8E1A8E8AE091E09A8389831D8E1C8E09
:102D200087EB92E09F8F8E8F8FEF8DA38EA38FA363
:102D300088A784E089A780E89AE1A6E0B0E08EAB9E
:102D40009FABA8AFB9AF80EA96E8A1E0B0E08AAF48
:102D50009BAFACAFBDAF80E58FAF21961FAE219783
:102D600080E094E00E94E51899A388A3892B09F4D8
:102D7000F7C0CE0101960E94CA138F8198856D819C
:102D80007E81AC0181970CF414C14054510957FF66
:102D900002C04F5F5F4F559547956255710977FFA8
:102DA00002C06F5F7F4F7595679510E4E12EF12C9F
:102DB00002E510E02AE532E0CE0101960E946F0E96
:102DC00082E08BA38E8D9F8D892B09F40AC18CE341
:102DD0008AA3109298011092970110920E021092FD
:102DE0000D020E94B70F86EF9FE09093C001809381
:102DF000BF0187EF9FE09093C4018093C30189A531
:102E000087FD1AC00E946B0561E089A50E948406B7
:102E100061E070E080E090E00E94F50660E089A546
:102E20000E9484066AE070E080E090E00E94F5066F
:102E300061E089A50E9484068E8D9F8D892B09F4FF
:102E400071C12EA93FA948AD59AD60E074E284EF8D
:102E500090E00E94BD182051310941095109569551
:102E60004795379527952093B80044E066E770E0D2
:102E7000CE0101960E9464116F816150CE010196CE
:102E80000E94091244E062E770E0CE0101960E94C0
:102E900064118BA164E1813009F460E1CE010196F7
:102EA0000E94091244E06EE670E0CE0101960E9495
:102EB00064118FE88EAF8D819E818038910509F075
:102EC00045C18F8198858034910509F04BC18BA154
:102ED000813009F439C18FEC8EAF12E16AEDCE0179
:102EE00001960E940912612FCE0101960E940912DB
:102EF00061E8CE0101960E9409126EADCE010196E5
:102F00000E94091269EDCE0101960E9409128BA15F
:102F100061EF813009F462E2CE0101960E9409124C
:102F200046E068E670E0CE0101960E9464118E8D45
:102F30009F8D892B09F41AC12AAD3BAD4CAD5DAD17
:102F400060E074E284EF90E00E94BD1820513109E6
:102F50004109510956954795379527952093B80013
:102F6000CE0101960E94CA13CE0101960E94C112A1
:102F70001E861D86188A1F8682E08D8B8E8B81E0CF
:102F800090E09C8B8B8B9A8B898BCE0101960E9453
:102F9000CA13CE0101960E94C1128AE091E09A8381
:102FA000898388A199A1009711F00E94811989B1A4
:102FB000FECF4052510957FF02C04F5F5F4F5595FA
:102FC00047956357710977FF02C06F5F7F4F759513
:102FD0006795F0E2EF2EF12C03E710E02AE730E0EE
:102FE000EBCE8FA10E946B0588A50E946B058FA177
:102FF000082E000C990BFC01E95AF54FE491F0E022
:10300000EE0FFF1FED5BF54F259134913FA72EA7E3
:10301000FC01E559F54FE491ECAB88A5082E000CB6
:10302000990BFC01E95AF54FE491F0E0EE0FFF1F18
:10303000ED5BF54FA591B491B9ABA8ABFC01E55997
:10304000F54FE491EDAB8C91E82BEC938C8D9D8D3D
:10305000892B89F11FB7F89480915601811124C002
:10306000E1E6FAE08491E5E7FAE09491E82FF0E0F8
:10307000EE0FFF1FE35BF54FA591B491EC91E923AF
:1030800021F461E08AE00E9484068AE00E946B05D8
:103090008CB580618CBD8CB580648CBD8DE00E9448
:1030A0006B058BE00E946B05809156018F5F8093CA
:1030B00056011FBFA4CE8DA10E946B058EA10E9458
:1030C0006B058DA1082E000C990BFC01E95AF54FF8
:1030D000E491F0E0EE0FFF1FED5BF54F2591349189
:1030E0003BA72AA7FC01E559F54FE491EAAB8EA175
:1030F000082E000C990BFC01E95AF54FE491F0E021
:10310000EE0FFF1FED5BF54FA591B491BDA7ACA7E6
:10311000FC01E559F54FE491EBAB8C91E095E82388
:10312000EC936DCE8C8D9D8D892B31F021968EADDB
:103130009FAD21970E948509E8A9F9A990818DA9E1
:1031400080958923808391CE8FE9C6CE8036910504
:1031500049F48F819885409729F48BA1813021F023
:103160008FEA8EAF12E0BACE80E1FBCFE8A9F9A9D1
:1031700080819DA9892B8083F3CEA1E21A2EAA1B00
:10318000BB1BFD010DC0AA1FBB1FEE1FFF1FA21717
:10319000B307E407F50720F0A21BB30BE40BF50B14
:1031A000661F771F881F991F1A9469F7609570959D
:1031B000809590959B01AC01BD01CF010895EE0F64
:1031C000FF1F0590F491E02D09940F931F93CF9367
:1031D000DF938230910510F482E090E0E091C50227
:1031E000F091C60230E020E0B0E0A0E0309799F422
:1031F0002115310509F44AC0281B390B243031054B
:10320000D8F58A819B816115710589F1FB01938352
:103210008283FE0111C040815181028113814817D0
:103220005907E0F04817590799F4109761F0129682
:103230000C93129713961C933296CF01DF91CF9186
:103240001F910F9108950093C5021093C602F4CF09
:103250002115310551F04217530738F0A901DB0160
:103260009A01BD01DF01F801C1CFEF01F9CF9093C1
:10327000C6028093C502CDCFFE01E20FF31F8193FA
:1032800091932250310939832883D7CF2091C302EB
:103290003091C402232B41F42091020130910301AB
:1032A0003093C4022093C3022091000130910101A8
:1032B0002115310541F42DB73EB7409104015091DD
:1032C0000501241B350BE091C302F091C402E21703
:1032D000F307A0F42E1B3F0B2817390778F0AC0139
:1032E0004E5F5F4F2417350748F04E0F5F1F509316
:1032F000C4024093C302819391939FCFF0E0E0E03A
:103300009CCFCF93DF930097E9F0FC0132971382B3
:103310001282A091C502B091C602ED0130E020E01A
:103320001097A1F420813181820F931F2091C30255
:103330003091C4022817390709F061C0F093C40224
:10334000E093C302DF91CF910895EA01CE17DF0722
:10335000E8F54A815B819E0141155105B1F7E9010C
:10336000FB83EA8349915991C40FD51FEC17FD07E0
:1033700061F4808191810296840F951FE901998300
:103380008883828193819B838A83F0E0E0E01296B8
:103390008D919C9113970097B9F52D913C911197C0
:1033A000CD010296820F931F2091C3023091C40277
:1033B0002817390739F6309751F51092C602109246
:1033C000C502B093C402A093C302BCCFD383C2830F
:1033D00040815181840F951FC817D90761F44E5F52
:1033E0005F4F88819981480F591F518340838A819B
:1033F0009B81938382832115310509F0B0CFF0932F
:10340000C602E093C5029ECFFD01DC01C0CF13824E
:103410001282D7CF81E090E0F8940C94161ADC0168
:1034200001C06D9341505040E0F70895F894FFCFEC
:103430000000C702800000000000C30B8B05C5130D
:103440008F0FCE088A05680E400E5C0E500EE20EFD
:103450008A0589096B123E088708890D6C0DF40CEA
:10346000950C0000000017068B05B8056406E905F9
:10347000C705DB05000000004E102110C5138A05AA
:063480001A100710F80FFE
:107E0000112484B714BE81FFF0D085E080938100F7
:107E100082E08093C00088E18093C10086E0809377
:107E2000C20080E18093C4008EE0C9D0259A86E02C
:107E300020E33CEF91E0309385002093840096BBD3
:107E4000B09BFECF1D9AA8958150A9F7CC24DD24C4
:107E500088248394B5E0AB2EA1E19A2EF3E0BF2EE7
:107E6000A2D0813461F49FD0082FAFD0023811F036
:107E7000013811F484E001C083E08DD089C08234E0
:107E800011F484E103C0853419F485E0A6D080C0E4
:107E9000853579F488D0E82EFF2485D0082F10E0AE
:107EA000102F00270E291F29000F111F8ED06801E7
:107EB0006FC0863521F484E090D080E0DECF843638
:107EC00009F040C070D06FD0082F6DD080E0C81688
:107ED00080E7D80618F4F601B7BEE895C0E0D1E017
:107EE00062D089930C17E1F7F0E0CF16F0E7DF06D8
:107EF00018F0F601B7BEE89568D007B600FCFDCFD4
:107F0000A601A0E0B1E02C9130E011968C91119780
:107F100090E0982F8827822B932B1296FA010C0160
:107F200087BEE89511244E5F5F4FF1E0A038BF0790
:107F300051F7F601A7BEE89507B600FCFDCF97BE46
:107F4000E89526C08437B1F42ED02DD0F82E2BD052
:107F50003CD0F601EF2C8F010F5F1F4F84911BD097
:107F6000EA94F801C1F70894C11CD11CFA94CF0C13
:107F7000D11C0EC0853739F428D08EE10CD085E9AC
:107F80000AD08FE07ACF813511F488E018D01DD067
:107F900080E101D065CF982F8091C00085FFFCCF94
:107FA0009093C60008958091C00087FFFCCF809118
:107FB000C00084FD01C0A8958091C6000895E0E648
:107FC000F0E098E1908380830895EDDF803219F02E
:107FD00088E0F5DFFFCF84E1DECF1F93182FE3DFCA
:107FE0001150E9F7F2DF1F91089580E0E8DFEE27F6
:047FF000FF270994CA
:027FFE00040479
:00000001FF
